:100000000C94D8060C941F070C941F070C941F0720
:100010000C941F070C941F070C941F070C941F07C8
:100020000C941F070C941F070C941D300C94EF3098
:100030000C9405260C941F070C941F070C941F07A3
:100040000C941F070C941F070C941F070C941F0798
:100050000C941F070C9479260C941F070C941F070F
:100060000C941F070C941F070C941F070C941F0778
:100070000C941F070C941F070C941F070C941F0768
:100080000C941F070C941F070C941F070C941F0758
:100090000C941F070C941F070C941F070C941F0748
:1000A0000C941F070C941F070C941F07640A660A20
:1000B000710A680A6A0A6C0A6E0A700A730A750A7B
:1000C000770A820A790A7B0A7D0A7F0A810A840AF2
:1000D000F21BF21B241C241C641CD51DD51DD51D30
:1000E000841CD51D311D311DA11DAA1DD51DCE1D80
:1000F0003E1D3E1D3E1D3E1D3E1D3E1D3E1D3E1D28
:100100003E1D3E1D3E1D3E1D3E1D3E1D3E1D3E1D17
:100110004D1D5B1D621D691D731D601E601E721EDC
:10012000721E691E721E721E721E601E601E6E1E80
:10013000721E721E6E1E5C318331753283317532D0
:10014000CF31F23175324832573207634236B79BAE
:10015000D8A71A39685618AEBAAB558C1D3CB7CC27
:100160005763BD6DEDFD753EF6177231BF0000009F
:10017000803F05A84CCDB2D44EB93836A9020C50F8
:10018000B9918688083CA6AAAA2ABE000000803F32
:10019000A8004A00AE0001515200C35C500051005B
:1001A0004F00005CC05C780001004A00C35CAC00FA
:1001B0004D00AB0044454255473A20656E61626C84
:1001C00065642E0A000A0025303862003A200025B6
:1001D000303258000A722F632030313233343536D2
:1001E000370A007267626C696768742074696D65AC
:1001F000722064697361626C652E0A007267626CBA
:10020000696768742074696D657220656E61626CDF
:1002100065642E0A007267626C6967687420736592
:100220007420687376205B4E4F454550524F4D5DAC
:100230003A2025752C25752C25750A007267626C8D
:10024000696768742073657420687376205B454520
:1002500050524F4D5D3A2025752C25752C25750A79
:10026000007267626C69676874207261696E626FA0
:100270007720736574206873763A2025752C257570
:100280002C25642C25750A007267626C6967687496
:100290002064697361626C65205B6E6F45455052E6
:1002A0004F4D5D3A207267626C696768745F636F77
:1002B0006E6669672E656E61626C65203D202575EE
:1002C0000A007267626C69676874206469736162AE
:1002D0006C65205B454550524F4D5D3A2072676218
:1002E0006C696768745F636F6E6669672E656E61BF
:1002F000626C65203D2025750A007267626C696733
:10030000687420656E61626C65205B4E4F45455098
:10031000524F4D5D3A207267626C696768745F6323
:100320006F6E6669672E656E61626C65203D202583
:10033000750A007267626C6967687420656E616235
:100340006C65205B454550524F4D5D3A20726762A7
:100350006C696768745F636F6E6669672E656E614E
:10036000626C65203D2025750A007267626C6967C2
:10037000687420746F67676C65205B454550524F09
:100380004D5D3A207267626C696768745F636F6E77
:100390006669672E656E61626C65203D2025750A71
:1003A000007267626C69676874206D6F6465205BBA
:1003B0004E4F454550524F4D5D3A2025750A00720B
:1003C00067626C69676874206D6F6465205B454582
:1003D00050524F4D5D3A2025750A007267626C6974
:1003E0006768745F696E6974207267626C696768B8
:1003F000745F636F6E6669672E6D6F6465203D2064
:10040000302E2057726974652064656661756C745E
:100410002076616C75657320746F20454550524F8E
:100420004D2E0A007267626C696768745F696E6955
:1004300074206565636F6E666967206973206E6FEF
:100440007420656E61626C65642E0A007267626C6E
:10045000696768745F696E6974207374617274216E
:100460000A007267626C696768745F696E697420FC
:1004700063616C6C65642E0A007267626C69676800
:10048000745F636F6E6669672E7370656564203D87
:100490002025640A007267626C696768745F636F25
:1004A0006E6669672E76616C203D2025640A0072B5
:1004B00067626C696768745F636F6E6669672E73E5
:1004C0006174203D2025640A007267626C69676868
:1004D000745F636F6E6669672E687565203D2025C1
:1004E000640A007267686C696768745F636F6E6640
:1004F00069672E6D6F6465203D2025640A00726770
:10050000626C696768745F636F6E6669672E656E9B
:1005100061626C65203D2025640A007267626C6927
:100520006768745F636F6E666967206570726F6D70
:100530000A0000047F3F1F643214643214783C1EAA
:100540001E140A056801F000B40078005A0000008B
:10055000000000010101010101010101020202028A
:10056000020202020203030303030303030404045D
:100570000404040505050505060606060607070723
:1005800007080808080909090A0A0A0A0B0B0B0CD4
:100590000C0C0D0D0D0E0E0F0F0F1010111111126E
:1005A0001213131414151516161717181819191AEB
:1005B0001A1B1C1C1D1D1E1F1F202021222223244C
:1005C000252526272728292A2B2B2C2D2E2F2F3087
:1005D000313233343536363738393A3B3C3D3E3F9D
:1005E0004041424344464748494A4B4C4D4F505185
:1005F0005253555657585A5B5C5E5F60626364663F
:1006000067696A6C6D6E707173747678797B7C7EC5
:100610008081838486888A8B8D8F91929496989A14
:100620009B9D9FA1A3A5A7A9ABADAFB1B3B5B7B92A
:10063000BBBDBFC1C4C6C8CACCCFD1D3D6D8DADC03
:10064000DFE1E4E6E8EBEDF0F2F5F7FAFCFF0A0093
:100650002530325820006B6579626F6172645F7279
:1006600065706F72743A20000A0025303258006BB2
:100670006579626F6172645F7365745F6C65643A1B
:1006800020003F00433E20004C25640A0074696D41
:1006900065725F72656164333228293A20253034EF
:1006A0006C580A006B6579626F6172645F69646C93
:1006B000653A2025580A006B6579626F6172645F44
:1006C00070726F746F636F6C3A2025580A00686F00
:1006D00073745F6B6579626F6172645F6C6564737C
:1006E00028293A2025580A000A092D2053746174DC
:1006F0007573202D0A004743433A20342E392E3299
:10070000204156522D4C4942433A20312E382E304A
:1007100073766E204156525F415243483A206176CB
:1007200072350A004F5054494F4E533A204C5546AB
:10073000412045585452414B455920434F4E534F49
:100740004C4520434F4D4D414E4420343039360AFC
:10075000004255494C443A2022302E362E33343054
:100760002D36342D676232336333622D64697274BF
:100770007922202830303A30323A313720417072B5
:100780002033302032303139290A005649443A208A
:10079000307843423130284B656562696F292050BB
:1007A00049443A203078313133332842444E392994
:1007B000205645523A203078303130300A004445D6
:1007C00053433A20337833204D6163726F70616414
:1007D000207769746820526F7461727920456E6366
:1007E0006F646572730A000A092D20566572736979
:1007F0006F6E202D0A000A092D20436F6E736F6CF7
:1008000065202D0A4553432F713A09717569740AA1
:10081000000A092D204D61676963202D0A443A09B9
:100820004465627567204D65737361676520546F19
:1008300067676C650A583A094D617472697820449B
:1008400065627567204D6F646520546F67676C65DE
:10085000202D2053686F77206B65797072657373F4
:10086000657320696E206D617472697820677269A2
:10087000640A4B3A094B6579626F61726420446582
:1008800062756720546F67676C65202D2053686F11
:1008900077206B65797072657373207265706F7203
:1008A000740A4D3A094465627567204D6F7573652A
:1008B00020546F67676C650A563A0956657273690A
:1008C0006F6E0A533A095374617475730A433A0997
:1008D000416374697661746520436F6E736F6C65F4
:1008E000204D6F64650A46312D4631303A09537701
:1008F0006974636820746F204C6179657220302DB3
:10090000392028463130203D204C30290A302D39FD
:100910003A0953776974636820746F204C61796574
:100920007220302D390A47524156453A09537769AA
:1009300074636820746F204C6179657220302028C0
:10094000616C7465726E617465290A423A094A7570
:100950006D7020746F20426F6F746C6F616465728C
:100960000A4553433A094A756D7020746F20426FEF
:100970006F746C6F616465722028616C7465726E4F
:10098000617465290A453A095072696E74204545BB
:1009900050524F4D2053657474696E67730A425309
:1009A000504143453A09436C6561722045455052B8
:1009B0004F4D0A000A002575002E6C6576656C3A6D
:1009C00020000A002575002E656E61626C653A2074
:1009D000000A0025303258006261636B6C696768F9
:1009E000745F636F6E6669672E7261773A20000AE2
:1009F000002575002E6E6B726F3A20000A00257577
:100A0000002E737761705F6261636B736C617368F2
:100A10005F6261636B73706163653A20000A002551
:100A200075002E737761705F67726176655F6573BD
:100A3000633A20000A002575002E6E6F5F677569A6
:100A40003A20000A002575002E737761705F72618D
:100A50006C745F726775693A20000A002575002E74
:100A6000737761705F6C616C745F6C6775693A2055
:100A7000000A002575002E636170736C6F636B5FF5
:100A8000746F5F636F6E74726F6C3A20000A00259A
:100A900075002E737761705F636F6E74726F6C5F39
:100AA000636170736C6F636B3A20000A002530320B
:100AB00058006B65796D61705F636F6E6669672E54
:100AC0007261773A20000A002575002E6D6F7573EC
:100AD000653A20000A002575002E6B6579626F610A
:100AE00072643A20000A002575002E6D61747269E7
:100AF000783A20000A002575002E656E61626C65EB
:100B00003A20000A00253032580064656275675F3C
:100B1000636F6E6669672E7261773A20000A00255E
:100B2000750064656661756C745F6C617965723AB5
:100B300020003F000A6D6F7573653A206F66660A84
:100B4000000A6D6F7573653A206F6E0A000A6B6557
:100B500079626F6172643A206F66660A000A6B659B
:100B600079626F6172643A206F6E0A000A6D617477
:100B70007269783A206F66660A000A6D617472695C
:100B8000783A206F6E0A000A64656275673A206FD2
:100B900066660A000A64656275673A206F6E0A002D
:100BA0000A0A4A756D70696E6720746F20626F6FF4
:100BB000746C6F616465722E2E2E2000433E2000FF
:100BC000436C656172696E6720454550524F4D0A0E
:100BD000006565636F6E6669673A0A006261636B00
:100BE0006C6967687420737465703A2025750A0013
:100BF0006261636B6C696768742064697361626CBD
:100C0000650A006261636B6C6967687420656E6178
:100C1000626C650A006261636B6C6967687420745A
:100C20006F67676C653A2025750A006261636B6CBB
:100C3000696768742064656372656173653A20252D
:100C4000750A006261636B6C6967687420696E6322
:100C500072656173653A2025750A005B735D004B10
:100C60006579626F6172642073746172742E0A0018
:100C70005B575D005B535D005B525D005B445D0054
:100C80005B435D000403300000000A03420044009F
:100C90004E00390000000E034B0065006500620045
:100CA00069006F0000000403090409025B000301EE
:100CB00000A0FA090400000103010100092111014B
:100CC00000012240000705810308000A0904010011
:100CD000010300000009211101000122360007056F
:100CE000820320000A090402000203000000092117
:100CF00011010001222200070583032000010705DE
:100D00000303200001120110010000000810CB3382
:100D1000110001010203010631FF0974A1010975E7
:100D2000150026FF0095207508810209761500261A
:100D3000FF00952075089102C005010980A1018579
:100D4000031601002603001A81002A8300751095FE
:100D5000018100C0050C0901A101850416010026CE
:100D60009C021A01002A9C02751095018100C005A1
:100D7000010906A101050719E029E71500250195DC
:100D8000087501810295017508810105081901297D
:100D900005950575019102950175039101050719E6
:100DA0000029FF150026FF00950675088100C00088
:100DB00011241FBECFEFDAE0DEBFCDBF04B603FEC5
:100DC00027C08091290290912A02A0912B02B09114
:100DD0002C028730904BA740B04BD1F410922902DF
:100DE00010922A0210922B0210922C0214BE84B789
:100DF000877F84BF0FB6F894A895809160008861C2
:100E000080936000109260000FBEE0E0F8E3099567
:100E100011E0A0E0B1E0ECE9FDE602C005900D9222
:100E2000AC36B107D9F722E0ACE6B1E001C01D92C3
:100E3000A932B207E1F70E94362D0C94CC360C94FF
:100E40000000FF93EF93E0916C01F0916D013097FA
:100E500009F00995EF91FF910895FC01859180308B
:100E600011F0EFDFFBCF0895FF27E0E230E247FF0C
:100E70000CC0419597FF09C0EDE260957095809593
:100E80009095611D711D811D911D27FF02C0219547
:100E900030E350E2AA27660F771F881F991FAA1F09
:100EA000A41710F0A41B63955A95A9F7AA3008F06F
:100EB000A95FA05DAF93F39561157105810591055B
:100EC00041F7ED3211F4EF93F395F21718F43F93D5
:100ED000F395FBCF8F91B5DFFA95E1F70895E9918E
:100EE000F9918591803021F0853219F0AADFF9CF90
:100EF000089520E0E89455915532C1F3503311F430
:100F0000689455915A3348F4505390F3220F022EAF
:100F1000220F220F200D250FF4CF0EF42195899179
:100F20009991533619F3533729F1533559F1BC01CF
:100F300088279927E8945C3621F4899199916894DF
:100F40005591543639F446EF7EF077FF0DC08FEFA0
:100F50009FEF0AC055374AE039F0583540E121F09B
:100F6000523642E009F00895FF93EF937DDFEF9151
:100F7000FF91B7CFFF93EF93FC0181918030B9F3DC
:100F800060DFFBCFFF93EF9368DFF1CFDF93CF9369
:100F9000CDB7DEB72596A3DFCF91DF9108958111FC
:100FA00006C0662311F089EA09C08AEA07C08130C9
:100FB00039F4662311F08EE401C08BE40C94A61B77
:100FC000089581E0089581E008950C94E3071F934C
:100FD000CF93DF9300D000D01F92CDB7DEB7498307
:100FE0005A832091990189819A81211112C0662327
:100FF00049F00E948523182F682F89819A810E94C9
:101000002A2303C00E945923182F69817A81812FD6
:1010100004C00E94852369817A810F900F900F9000
:101020000F900F90DF91CF911F910C94360BFC0124
:10103000408151816281738184810C94E7070E9411
:10104000F6170C94EB0DE82FE295EF70F0E032A16B
:10105000282F2F7081E090E001C0880F2A95EAF7D1
:101060008095832382A30895CF92DF92EF92FF921F
:10107000883030F4811105C0909180009F7704C0C2
:1010800087E090918000906890938000282F30E056
:10109000AFEFBFEF0E945D3627E030E040E050E068
:1010A0000E9435362C3784E138074105510530F46C
:1010B000C90169E070E00E940D3629C0DA01C9015A
:1010C0008A50974DAF4FBF4F6627782F892F9A2FA1
:1010D00025EF38E241E050E00E94353669017A019F
:1010E000CA01B9010E94F1359B01AC01C701B601EB
:1010F0000E94F135BB27A92F982F872F009721E059
:10110000A207B10511F0BC0102C06FEF7FEF709331
:10111000890060938800FF90EF90DF90CF90089552
:10112000259A85E30E94230882E88093800089E164
:10113000809381008FEF9FEF9093870080938600CC
:101140000C94D3290E94D024811102C00E945325FF
:101150000E9490080E9492170C94E80D08950C9438
:10116000AE080C94AF0808950E94501E0E94B30868
:101170002FEF84E39CE0215080409040E1F700C0D5
:10118000000087E797E790930108809300080C948C
:101190009F260F931F93CF93DF938C010E94170814
:1011A000EC01B8010E94E507882309F455C2CC3C44
:1011B0008CE5D80709F4E5C0E8F5C43CECE5DE07AA
:1011C00009F4A9C0F8F4C5318CE5D80778F4C23029
:1011D0009CE5D90708F056C1C115ECE5DE0709F416
:1011E00067C0C130DC4509F46BC02AC2C23C8CE543
:1011F000D80709F47CC008F082C0C631DC4509F488
:10120000F8C11EC2F8018281C83CFCE5DF0709F481
:10121000A0C040F4C63CECE5DE0709F48EC008F43B
:1012200086C091C0CA3C9CE5D90709F49EC008F469
:1012300096C0A1C0C43DFCE5DF0709F4FCC0C0F4C2
:10124000F8018281C03DFCE5DF0709F4C3C040F42A
:10125000CE3CECE5DE0709F4A1C008F49AC0ACC0AE
:10126000C23D9CE5D90709F4D3C008F4C3C0DEC071
:10127000C93DFCE5DF0709F4A1C160F4C73D9CE569
:10128000D90709F451C108F072C1C53DDC4509F424
:10129000E2C0D6C1CD3D8CE5D80709F4EAC0CE3D09
:1012A0009CE5D907E1F0CC3DDC4509F0C9C1DAC0C5
:1012B000F8018281882309F4CFC10E94B408CCC10F
:1012C000F8018281882309F4C7C18091F10181600E
:1012D0008093F10184EB91E00E942D07BDC1F801DC
:1012E0008281882309F4B8C10E945325B5C1F80151
:1012F0008281882309F4B0C10E948B16ADC1F80128
:101300008281882309F4A8C10E940524827261F0B9
:101310000E94BB15A1C1F8018281882309F49CC1F8
:101320000E9405248272A1F30E94AD1595C1882305
:1013300009F492C10E94AE128FC1882309F48CC1B6
:101340000E94D21289C1882309F486C10E94F21238
:1013500083C1882309F480C10E9412137DC18823B0
:1013600009F47AC10E94321377C1882309F474C149
:101370000E94521371C1882309F46EC10E94651046
:101380006BC1F8018281882309F466C10E947A103A
:1013900063C1882309F460C181E029C0882309F46E
:1013A0005BC10E945C10823028F00E945C10853086
:1013B00008F4BACF82E01BC0882309F44DC10E9413
:1013C0005C10863028F00E945C10883008F4ACCFA6
:1013D00086E00DC0882309F43FC10E945C1089306B
:1013E00028F00E945C108E3008F49ECF89E00E94A5
:1013F000BE1532C1882309F42FC10E945C108F30C2
:1014000028F00E945C10843108F48ECF8FE0EFCF7B
:10141000882309F421C10E945C10853128F00E94C4
:101420005C10873108F480CF85E1E1CF882309F48F
:1014300013C188E1DCCFF8018281882309F40CC153
:101440000E945C10893128F00E945C10823208F4FE
:101450006BCF89E1CCCFF8018281882309F4FCC0ED
:1014600083E2C5CFF8018281882309F4F5C080E0CA
:1014700006C0F8018281882309F4EEC082E00E9450
:10148000E02DEAC0F8018281882309F4DEC00E94C1
:10149000D024811102C00E9453250E94E32490E0D1
:1014A00090931A0280931902FE01E350FC45E23149
:1014B000F10530F4EA5AFF4F809119020C94573627
:1014C00080911902816027C0826025C0846023C09A
:1014D000806121C080621FC080641DC080681BC005
:1014E0008460886018C08E7F16C08D7F14C08B7F8B
:1014F00012C08F7E10C08F7D0EC08F7B0CC08F7787
:101500000AC08B7F877F07C087FB222720F991E0E5
:10151000922790FB87F980931902809119020E940B
:10152000E7240E94501E98C0F8018281882351F060
:10153000109273010E9437269093700180936F017F
:1015400082E022C08091730181110FC080916F01F0
:10155000909170010E944F26883C910530F486E2FC
:101560000E94181A86E20E94471B82E024C0F801FC
:101570008281882361F0109274010E943726909333
:1015800072018093710180E20E94AE1B65C0809160
:10159000740181110FC080917101909172010E94BC
:1015A0004F26883C910530F487E20E94181A87E2A2
:1015B0000E94471B80E20E94B51B4EC0F801828149
:1015C0008111D9CF809174018111F4CF8091710183
:1015D000909172010E944F26883C910558F780E255
:1015E0000E94B51B88E20E94181A88E20E94471BDD
:1015F00033C00E940524282FF801828140910E01FA
:1016000050910F01882379F02A7A91E009F490E053
:1016100090936E01911102C069E201C065E3CA01B5
:101620000E9487250AC080916E01811102C069E283
:1016300001C065E3CA010E9489250E9451240CC0A3
:1016400081E08093730180937401C801DF91CF9191
:101650001F910F910C94E10780E0DF91CF911F91D2
:101660000F91089580E090E008950895272F30E0CD
:10167000F901EE0FFF1F2E0F3F1FF90199E0899F1F
:10168000E00DF11D1124E60FF11DEE0FFF1FE057D5
:10169000FE4F859194910895880F991FFC01EB539B
:1016A000FE4F859194910895CF93DF930E94360B5E
:1016B0000E94470DEC01811521E5920708F042C018
:1016C000811560E5960708F031C1883E910500F567
:1016D000803E910508F0D7C1883A910570F4853AAB
:1016E000910508F0A6C08130910509F4CCC108F439
:1016F0007DC1049708F0C7C179C18F3B910508F4FB
:10170000A3C0803C910508F471C1805C9109FDC0C3
:10171000C11580E3D80780F4C11590E2D90708F01D
:10172000F2C0C03FD10508F461C1CF3FD10511F02F
:1017300008F0A9C1D065A7C1C11520E4D20708F0FF
:10174000F2C0E7C0811569E5960760F5C11588E527
:10175000D80708F037C1C11594E5D90778F4C11549
:1017600023E5D20708F013C1C11562E5D60708F0DA
:10177000F8C0DC2FCC27C16FD06A85C1C11585E5C3
:10178000D80708F41AC1C11596E5D90708F02EC18B
:101790008C2F0E94C40D8F71C82FD0E0DC2FCC2776
:1017A000D06271C18D3B2CE5920709F416C1F0F4AB
:1017B000CB3B8CE5D80709F40AC108F00BC1C11571
:1017C0002AE5D20708F012C18C2F8F700E94C40D39
:1017D00094E0D695C7959A95E1F7CF70D0E0DC2FCD
:1017E000CC27D06A8F70806EC82B4DC1803C9C4541
:1017F00009F4F9C0C13C8CE5D80760F4CE3B9CE508
:10180000D90709F4EDC0CF3BDC4509F0EFC0C0E0DB
:10181000D2ED39C1CE0190568115904208F0E6C054
:101820008D2F8F710E94C40DDD27D0628F71D82B50
:101830002AC1853A910509F4DCC0863A910509F080
:10184000DBC0C2E8D0E41FC1883A910509F4D7C0D3
:10185000893A910509F4D6C08A3A910509F4D5C0B0
:101860008B3A910509F4D4C08C3A910509F4D3C0A0
:101870008B3B910509F4D2C08C3B910509F4D1C092
:101880008D3A910509F4D0C0803B910509F4CFC091
:101890008E3A910509F4CEC08F3A910509F4CDC076
:1018A000813B910509F4CCC0823B910509F4CBC082
:1018B000833B910509F4CAC0843B910509F4C9C072
:1018C000853B910509F4C8C0863B910509F4C7C062
:1018D000873B910509F4C6C0883B910509F4C5C052
:1018E000893B910509F4C4C08D3B910509F4C3C03F
:1018F0008E3B910509F4C2C08A3B910509F4C1C031
:10190000C0E0D4E4C0C0CE019F700E944C0BEC013B
:10191000BAC0CE019927D3FF03C0EC01D86CB3C085
:10192000EC01D06CB0C0DF70D06AADC0837021E034
:1019300030E002C0220F331F8A95E2F73C68CE01E7
:1019400074E0969587957A95E1F78370382BCF7080
:10195000C695C69580E2C89FE0011124C22BD32B07
:1019600092C04C2F4695469590E2499FA0011124C4
:10197000C370DD2721E030E0C90102C0880F991F44
:10198000CA95E2F7EC01C42BD52BDC687CC04C2F48
:101990004695469580E2489FA0011124C370DD273B
:1019A00021E030E0C90102C0880F991FCA95E2F713
:1019B000EC01C42BD52BDA6866C0DC2FCC27C46FB2
:1019C000D06A61C0DC2FCC27C06FD06A5CC0C0E099
:1019D000D4ED59C0C0E0D5ED56C0C0E0D1ED53C044
:1019E000C0E0D0ED50C0C0E0D3ED4DC0C0E0D0E0CD
:1019F0004AC0C1E8D0E447C0C3E8D0E444C0C2EE66
:101A0000D4E441C0C9EED4E43EC0CAEED4E43BC045
:101A1000C5EBD4E438C0C6EBD4E435C0C3EBD4E4A2
:101A200032C0C4EBD4E42FC0C7EBD4E42CC0CCEC60
:101A3000D4E429C0CDECD4E426C0C3E8D5E423C067
:101A4000CAE8D5E420C0C2E9D5E41DC0C4E9D5E4A4
:101A50001AC0C1E2D6E417C0C3E2D6E414C0C4E29F
:101A6000D6E411C0C5E2D6E40EC0C6E2D6E40BC08F
:101A7000C7E2D6E408C0CFE6D4E405C0C0E7D4E4AA
:101A800002C0CAE2D6E4CE01DF91CF910895823838
:101A9000910549F1B0F48133910509F458C048F437
:101AA0008932910509F44EC08A32910509F454C077
:101AB00008958533910509F440C08933910599F063
:101AC0000895833E910529F138F4803E910591F007
:101AD000823E9105A1F00895863E9105F9F0873E7A
:101AE000910531F108952091190220FD3AC021FDA0
:101AF00038C008958091190280FD35C032C08091B0
:101B0000190282FF32C08091190284FD30C083EE39
:101B100039C08091190282FD28C0F5CF8091190249
:101B200083FF27C08091190284FD21C087EE2AC05F
:101B30008091190283FD1DC0F5CF8091190285FDAA
:101B40001AC01BC08091190285FD17C014C0809176
:101B5000190286FD14C015C08091190286FD11C0BE
:101B60000EC080EE0FC089E30DC082EE0BC080E096
:101B700009C086EE07C089E205C085E303C08AE29A
:101B800001C081E390E008959091190292FF0DC089
:101B9000282F2871283019F4877F846006C0282FE9
:101BA0002471243011F48B7F886093FF0DC0282F9F
:101BB0002871283119F4877E846106C0282F24718A
:101BC000243111F48B7E886194FD877E08950895F9
:101BD0000C94E70D08950C94EA0DE82FF0E0EB5813
:101BE000FE4F80810895CF92DF92EF92FF920F9384
:101BF0001F93CF93DF9384ED91E00E942D0785E73B
:101C0000E82E81E0F82EC0E0D0E09FECC92E91E0F4
:101C1000D92E07EC11E0DF93CF93DF92CF920E9491
:101C2000C6078CEC91E00E942D07F70181917F019E
:101C30000E94BA241F928F931F930F930E94C6078E
:101C400085EC91E00E942D0721968DB79EB70896EE
:101C50000FB6F8949EBF0FBE8DBFC330D105D9F625
:101C6000DF91CF911F910F91FF90EF90DF90CF9078
:101C70000895CF93DF932BE131E061E070E080E0E5
:101C800090E0F901E80FF91F4081E42FE295EF7031
:101C9000F0E0A1A14F70EB0102C0CC0FDD1F4A950F
:101CA000E2F7AE015C2F50955A2351A352A1452B68
:101CB00042A301968330910521F72D5F3F4FD1E07C
:101CC00024323D07E1F610927801109275011092CE
:101CD00079011092760110927A011092770183E0D7
:101CE0000E94C30EDF91CF910C94A2080F931F9313
:101CF000CF93DF936BE171E0E8E7F1E020E0A1E052
:101D0000B0E013E01E0F0081108240E050E0EB01D4
:101D1000C40FD51F3881C32FC295CF70D0E088A1E2
:101D200090E03F7002C0959587953A95E2F780FD67
:101D300007C0CD01042E01C0880F0A94EAF702C043
:101D400080E090E09081892B80834F5F5F4F43302C
:101D50005105E9F691E0081301C090E0292B319676
:101D60006D5F7F4F1E13CFCF43E065E771E088E7DB
:101D700091E00E94C40E0E941F0881E0DF91CF9184
:101D80001F910F9108950895FF920F931F93CF9382
:101D9000DF938C01F62ED72FC42F222349F081E048
:101DA00080937D010E94372690937C0180937B0174
:101DB00080917D018823C1F080917B0190917C010D
:101DC0000E944F26069780F0EF2DFD2FD8014C2F53
:101DD00050E0CD01801B910B841795071CF48D9169
:101DE0008193F7CF10927D01DF91CF911F910F91D9
:101DF000FF9008950895EF92FF920F931F93CF9352
:101E0000DF93E901662309F44BC0242F30E0EFEFA4
:101E1000F0E0E61BF109B901E69F9001E79F300D64
:101E2000F69F300D1124232F8B01031B11095CE356
:101E3000E52EF12CB7010E940D36FB01BC01069F77
:101E4000C001079F900D169F900D1124B7010E94AD
:101E50000D36E230F105B1F040F4309779F031976A
:101E600011F5832F242F461B21C0E430F105A1F08A
:101E700068F03597C1F4842F861B18C0832F262F56
:101E8000230F14C0862F830FE42F03C0E42FE61B1B
:101E9000842F432F2E2F0AC0842F462F430F06C0B6
:101EA000842F242F03C080E020E040E0E42FF0E006
:101EB000E25BFA4F4491E22FF0E0E25BFA4F94913B
:101EC000E82FF0E0E25BFA4FE49149839883EA83DC
:101ED000DF91CF911F910F91FF90EF900895809126
:101EE0000402282F26952F7330E02115310519F4AF
:101EF0008178826005C02532310524F081788864BC
:101F00008093040230910402432F441F4427441F4E
:101F100020910502522F550F852F842B27FB9927DF
:101F200090F9893641E094077CF068E671E00E9400
:101F3000213680FB37F93093040286952078822B76
:101F400090FB87F980930502089588E090E00C9457
:101F50008C36CF93DF9300D000D0CDB7DEB7AB0186
:101F6000BC0149835A836B837C830E946F0F498134
:101F70005A816B817C8188E090E00F900F900F90E8
:101F80000F90DF91CF910C94AA36E4E0F2E083E069
:101F90008083109205028FEF828383831482608195
:101FA0007181828193810C94A90F8091F10180FF4E
:101FB00008C08BE195E09F938F930E94C6070F9016
:101FC0000F908091F10180FF0FC080910402817019
:101FD0001F928F938EEF94E09F938F930E94C6077A
:101FE0000F900F900F900F908091F10180FF10C023
:101FF0008091040286958F731F928F9383EE94E0F5
:102000009F938F930E94C6070F900F900F900F9091
:102010008091F10180FF19C080910402881F8827F8
:10202000881F90910502292F220F822B97FB992759
:1020300090F99F938F9389EC94E09F938F930E94E4
:10204000C6070F900F900F900F908091F10180FFC5
:102050000EC0809106021F928F938FEA94E09F93A7
:102060008F930E94C6070F900F900F900F90809152
:10207000F10180FF0EC0809107021F928F9385E9C6
:1020800094E09F938F930E94C6070F900F900F903C
:102090000F908091F10180FF0EC0809108021F9285
:1020A0008F9389E794E09F938F930E94C6070F90C8
:1020B0000F900F900F9008958091040280FF03C04D
:1020C00086958F73089580E008958091080290E0CE
:1020D00001968430910514F083E090E0809308022B
:1020E00060910402709105028091060290910702AE
:1020F0000C94A90F8091080290E0019797FF02C00D
:1021000080E090E08430910514F083E090E08093CB
:10211000080260910402709105028091060290917C
:1021200007020C94A90F8091810123E0829FC001D6
:102130001124875F9D4F6091020170E0209104029D
:1021400020FD0DC020E030E0F901E75FFD4F118276
:10215000108212822D5F3F4F2C303105A9F70C946D
:102160008D179091040290FF0FC020E030E0F9013C
:10217000E75FFD4F8183608342832D5F3F4F2C30AB
:102180003105A9F70C9493100895CF93DF9300D0F5
:102190001F92CDB7DEB72091040220FF0AC09E0136
:1021A0002F5F3F4F0E94FB0E4B8169818A810E9405
:1021B000B1100F900F900F90DF91CF910895CF93B2
:1021C000DF93EC016C8170E080E090E00E94F233DC
:1021D00020E030E04FE753E40E9415332BED3FE061
:1021E00049E450E40E941B350E9488350E948F33D9
:1021F0002BE43AE34EE25FE30E94A83220EF3BEF8C
:1022000048ED52E40E941B350E94C133462FE4E0A2
:10221000F2E08081881F8827881F90910502292F6E
:10222000220F97FB992790F96281822B0E94C5109B
:102230002C8130E02F5F3F4F2C83DF91CF910895A9
:10224000CF93DF93EC01E4E0F2E0438162818C8183
:102250009D810E94C5108C819D81019668E671E088
:102260000E9421369D838C83DF91CF9108950F9337
:102270001F93CF93DF9300D01F92CDB7DEB78C01B1
:1022800080917E0181110CC09E012F5F3F4F4FEF67
:102290006FEF80E090E00E94FB0E8A8180937E01C8
:1022A000F8018481813051F028F0823061F440914E
:1022B0007E010AC080917E0140E007C060917E01EE
:1022C00040E080E003C040E080E060E00E94B110A8
:1022D000F801248130E0C901019663E070E00E94BA
:1022E000213684830F900F900F90DF91CF911F9133
:1022F0000F9108952F923F924F925F926F927F922B
:102300008F929F92AF92BF92CF92DF92EF92FF9205
:102310000F931F93CF93DF93CDB7DEB727970FB6F9
:10232000F894DEBF0FBECDBF8C01262E342E2D8338
:102330008091040280FFDFC0E82FE695EF73AE2F97
:10234000B0E0AC5DBE4F9C9190938901282F2E7711
:10235000223061F49E012F5F3F4FC8010E94FB0EA7
:102360004B8169818A810E94B11078C0923019F442
:102370003090070273C0963069F4881F8827881F41
:1023800090910502292F220F022F082B97FB11276E
:1023900010F964C0993089F3993109F05FC0E951AF
:1023A000E0FD03C021E02C8302C03FEF3C83E695B3
:1023B000F0E0EE0FFF1FEC5BFA4F859094908C815C
:1023C000682E880F7708C40196958795969587950E
:1023D000689E2001699E500C789E500C1124580173
:1023E00098E9A91A9EEFB90A39E0C32E32E0D32E3C
:1023F000E12CF12CC50168E671E00E940D362091B8
:10240000F10120FF18C09F928F927F92AC81AF9311
:102410009F938F93FF92EF92A1E6B2E0BF93AF93A9
:102420008E839F830E94C6070FB6F894DEBF0FBE4F
:10243000CDBF9F818E819601432D622D0E94FB0EA0
:10244000BFEFEB1AFB0AA40CB51C23E0C20ED11C93
:1024500034E0E316F10471F60E94931080910402B7
:1024600000FB87F980930402809105028078902F09
:102470009695892B10FB87F980930502209206021E
:10248000309207028D81882321F1609104027091BE
:10249000050280910602909107020E94A90F809187
:1024A00007021F928F93809106021F928F93809153
:1024B0000402881F8827881F90910502292F220F68
:1024C000822B97FB992790F99F938F938CE392E04F
:1024D00009C01F923F921F922F9211701F930F936A
:1024E00085E192E09F938F930E94C6070FB6F89400
:1024F000DEBF0FBECDBF27960FB6F894DEBF0FBE6E
:10250000CDBFDF91CF911F910F91FF90EF90DF90A2
:10251000CF90BF90AF909F908F907F906F905F9083
:102520004F903F902F900895282FE4E0F2E09081A3
:10253000991F9927991F30910502832F880F482FE3
:10254000492B37FB552750F9CA01089668E671E018
:102550000E942136438162810C947A1181E00C94AF
:102560009412282F90910402991F9927991F309156
:102570000502832F880F482F492B37FB552750F929
:10258000CA01483051051CF4805A9E4F01C008977B
:1025900068E671E00E9421364091070260910602D0
:1025A0000C947A1181E00C94B11260910602262FEE
:1025B00030E0283F310514F4685F01C06FEF3091BF
:1025C0000402331F3327331F90910502592F550FF3
:1025D00097FB992790F9282F40910702852F832B8D
:1025E0000C947A1181E00C94D51260910602262F8A
:1025F00030E02830310514F0685001C060E03091BF
:102600000402331F3327331F90910502592F550FB2
:1026100097FB992790F9282F40910702852F832B4C
:102620000C947A1181E00C94F51240910702242F4A
:1026300030E0283F310514F4485F01C04FEF30917E
:102640000402331F3327331F90910502592F550F72
:1026500097FB992790F9282F60910602852F832BED
:102660000C947A1181E00C94151340910702242FE9
:1026700030E02830310514F0485001C040E030917E
:102680000402331F3327331F90910502592F550F32
:1026900097FB992790F9282F60910602852F832BAD
:1026A0000C947A1181E00C94351320E00C947A118B
:1026B000CF92DF92EF92FF920F931F93CF93DF930E
:1026C000EC0189E0E82E82E0F82E00E010E098E6C8
:1026D000C92EDD24D3948C819D81800F911FB6017A
:1026E0000E942136970140910702609106020E94E4
:1026F000FB0E065A1F4F83E0E80EF11C083681E0FE
:10270000180749F70E9493108A812C813D8180FF30
:1027100006C0C9010196B8010E94213605C01216F3
:1027200013062CF087E691E09D838C8304C0215032
:1027300031093D832C83DF91CF911F910F91FF9041
:10274000EF90DF90CF900895AF92BF92CF92DF923B
:10275000EF92FF920F931F93CF93DF93FC0182813F
:1027600080FF03C0BB24BA9402C0BB24B39429E009
:10277000E22E22E0F22E0BE012E0C0E0D0E0F80101
:1027800031971082F7011082F801108294E0C92E6F
:10279000D12CA12C809180018A0D87FD8C5F082EA1
:1027A000000C990BC817D907E9F4809107028C9D9A
:1027B000A0018D9D500D1124559547955595479530
:1027C00080910402881F8827881F90910502592F45
:1027D000550F97FB992790F9970160910602852B79
:1027E0000E94FB0EAB0CF1E0CF1AD10899F62196AE
:1027F00083E0E80EF11C0D5F1F4FC430D10509F0D6
:10280000BECF0E9493108091800191E0B91206C062
:10281000811102C083E006C0815004C090E001969F
:102820008370992780938001DF91CF911F910F9141
:10283000FF90EF90DF90CF90BF90AF900895EF9210
:10284000FF920F931F93CF93DF9380E090E0FC0102
:10285000E75FFD4F11821082128203968C30910542
:10286000B1F789E0E82E82E0F82E0BE012E0C0E03C
:10287000D0E080917F01082E000C990BC817D90772
:10288000ECF080910101082E000C990B8C179D072C
:10289000ACF080910402881F8827881F9091050260
:1028A000592F550F97FB992790F9970140910702EF
:1028B00060910602852B0E94FB0E07C0F80131973C
:1028C0001082F7011082F80110822196F3E0EF0EDA
:1028D000F11C0D5F1F4FC430D10559F60E949310B3
:1028E0008091000190917F01980F90937F0120913A
:1028F0000101280F20930101121614F493301CF0EB
:10290000819580930001DF91CF911F910F91FF90EE
:10291000EF900895EF92FF920F931F93CF93DF9361
:10292000EC012C813D812F5F3F4F217033273D8388
:102930002C8389E0E82E82E0F82E10E008E7812F52
:102940008695EC81FD81E80FF11DCF0181709927FB
:1029500097014091070260910602FC010E9FC001A1
:102960000F9F900D11240E94FB0E1F5FF3E0EF0EEE
:10297000F11C143021F7DF91CF911F910F91FF903F
:10298000EF900C949310EF92FF920F931F93CF93BD
:10299000DF937C01C9E0D2E000E010E0F701848120
:1029A0003091040290910502023011051CF4882335
:1029B00081F002C081110DC0832F881F8827881FD6
:1029C000592F550F97FB992790F99E0140910702C7
:1029D0000BC0832F881F8827881F592F550F97FBFF
:1029E000992790F99E0140E060910602852B0E9494
:1029F000FB0E0F5F1F4F23960430110579F60E94DE
:102A00009310F701848190E0019681709927848367
:102A1000DF91CF911F910F91FF90EF9008956091FA
:102A2000040266956F7370E04BE050E083E091E044
:102A30000E947736892B19F481E080938A010E94E5
:102A4000372690938301809382018091F10180FF6A
:102A500008C08CEF91E09F938F930E94C6070F9060
:102A60000F90089510928A018091F10180FF08C0B3
:102A700083EE91E09F938F930E94C6070F900F9073
:102A800008959091040290FF5BC09178811102C07B
:102A9000926007C0853210F0986403C08F73880F6E
:102AA000982B90930402662399F060910402709130
:102AB000050280910602909107020E94A90F809161
:102AC000040286958F731F928F938FEB93E008C05B
:102AD0008091040286958F731F928F9381EA93E011
:102AE0009F938F930E94C6070F900F900F900F90A7
:102AF0006091040266956F7370E04BE050E083E0F4
:102B000091E00E947736892B19F00E94321502C09D
:102B10000E940F1581E08093850180910402881F37
:102B20008827881F90910502292F220F97FB99274C
:102B300090F94091070260910602822B0C94551384
:102B40000895682F9091040296959F7381E0890FF4
:102B5000853208F081E00C94411581E00C94A115B8
:102B6000682F9091040296959F738FEF890F09F457
:102B700084E20C94411581E00C94B01561E00C9452
:102B80004115CF93DF93C4E0D2E0888181608883D0
:102B90001F9281E08F9383E393E09F938F930E9432
:102BA000C6070F900F900F900F90888186958F73B6
:102BB000DF91CF910C94BE1560E00C94411580918B
:102BC0008801811162C08091F10181608093F101DF
:102BD00082E694E09F938F930E94C6078091F10153
:102BE0000F900F9080FF08C08CE494E09F938F9328
:102BF0000E94C6070F900F900E94D024811110C030
:102C00008091F10180FF08C084E294E09F938F934C
:102C10000E94C6070F900F900E9453250E94C50F77
:102C20000E94A50F60930402709305028093060230
:102C3000909307026E77C1F48091F10180FF08C084
:102C40008BED93E09F938F930E94C6070F900F9098
:102C50000E94C50F0E94A50F6093040270930502A5
:102C600080930602909307020E946F0F0E94D50F77
:102C700010928A018091040280FF04C086958F73B0
:102C80000E94DC1581E0809388010895CF93DF9343
:102C9000C4E0D2E08881816088831F9281E08F93B5
:102CA0008AEF92E09F938F930E94C6070F900F9038
:102CB0000F900F90888186958F73DF91CF910C9440
:102CC000DC15CF93DF93C4E0D2E088818E7F8883C8
:102CD000688179818A819B810E94A90F8881817096
:102CE0001F928F9382EC92E09F938F930E94C6076E
:102CF0000E9432152FEF80E792E0215080409040F3
:102D0000E1F700C000000F900F900F900F90DF913F
:102D1000CF910C94931080910402809581701F9242
:102D20008F938AE693E09F938F930E94C6078091CA
:102D300004020F900F900F900F9080FD0C9461167D
:102D40000C94C115E4E0F2E080818E7F80831F92B5
:102D50001F9288E892E09F938F930E94C6070E947B
:102D600032152FEF80E792E0215080409040E1F74C
:102D700000C000000F900F900F900F900C949310D4
:102D80000F931F93CF93DF9380918A01882309F4D7
:102D90008DC080918901E0910402E695EF73E81BF4
:102DA000E0938401823049F4F0E0E05CFA4FE49172
:102DB000CE2FD0E00FED10E149C0863049F4F0E0AD
:102DC000E35CFA4FE491CE2FD0E000E211E13EC087
:102DD000893051F4E695F0E0E65CFA4FE491CE2FAD
:102DE000D0E008E513E132C08F3051F4E695F0E011
:102DF000E95CFA4FE491CE2FD0E004EA13E126C05B
:102E0000853149F4F0E0EC5CFA4FE491CE2FD0E04C
:102E10000FE114E11BC0883181F0833239F4E2E321
:102E2000F5E0C591D49107E311E110C0843251F46B
:102E3000C4EFD1E003EC14E109C0C8EED3E00AE826
:102E400014E104C0C0EDD7E00AEF1EE080918501D7
:102E5000882389F0109285010E9437269E012095D3
:102E60003095820F931F909383018093820110927B
:102E700087011092860180918201909183010E94C6
:102E80004F268C179D0790F0E0918201F09183010D
:102E9000CE0FDF1FD0938301C093820182E891E0BF
:102EA000F801DF91CF911F910F910994DF91CF919C
:102EB0001F910F9108952BB1342F309523233BB1EF
:102EC000432B3FB7F894FC01680F791FE617F7070B
:102ED00089F0819198E04BB9000000C087FF2BB9C1
:102EE000880F000000C000C000C02BB900C09A9538
:102EF00091F7ECCF3FBF08952AB1242B2AB99B014B
:102F0000220F331F620F731F0E945B1787EC90E044
:102F10000197F1F700C00000089548E00C947C1779
:102F20000C94CF07FF920F931F93CF93DF93CBE5C2
:102F3000D1E049E551E02DE831E061E070E0099130
:102F4000A02FA295AF70B0E09196EC9191970F7081
:102F5000CB01002E01C0880F0A94EAF7982F9095B4
:102F60009E2391969C93919792969C919297892BF0
:102F700092968C939297FA011191AF01E12FE2950D
:102F8000EF70F0E0F1A01F70CB01012E01C0880F9F
:102F90000A94EAF7982F90959F2191A392A1892BEB
:102FA00082A390968C9190E002C0959587950A95A2
:102FB000E2F781709927E0A1F0E002C0F595E7956E
:102FC0001A95E2F7E0FD02C0E0E001C0E2E08E2BDE
:102FD000F90181939F01F1E0CD35DF0709F0AFCF13
:102FE000DF91CF911F910F91FF900895BF92CF92E3
:102FF000DF92EF92FF920F931F93CF93DF938DE8B1
:10300000C82E81E0D82E9BE5E92E91E0F92E09E546
:1030100011E0CBE8D1E0B12CD601EC918E2F880FD6
:10302000880F8C93F70191917F01E92FE295EF7062
:10303000F0E020A130E09F7002C0359527959A9569
:10304000E2F721703327D8019D918D01E92FE29598
:10305000EF70F0E040A150E09F7002C05595479599
:103060009A95E2F7FA01E170FF2740FF02C0E2E023
:10307000F0E0E22BF32BE82BD601EC93EF70F0E0BD
:10308000E75BFE4F90818881890F8883843024F02C
:1030900060E08B2D0E94901788818D3F24F461E0C1
:1030A0008B2D0E9490179881937897FF03C09150C1
:1030B0009C6F9F5F9993BFEFCB1ADB0AE1E0BE16CE
:1030C00019F0BB24B394A8CFDF91CF911F910F913A
:1030D000FF90EF90DF90CF90BF9008959093940170
:1030E000809393010895E0919301F09194013097BA
:1030F00021F00190F081E02D099480E00895EF9295
:10310000FF920F931F93CF93DF93E0919301F09180
:1031100094013097B1F18C010280F381E02D099583
:103120008091F10182FF2DC080FF04C086E596E00A
:103130000E942D07E80118E080E5E82E86E0F82ED1
:103140008091F10180FF0BC088811F928F93FF92C5
:10315000EF920E94C6070F900F900F900F901150A2
:1031600021961111EDCF8091F10180FF0AC08EE40C
:1031700096E0DF91CF911F910F91FF90EF900C940B
:103180002D07DF91CF911F910F91FF90EF90089540
:1031900020919101309192018217930771F09093E1
:1031A000920180939101E0919301F0919401309705
:1031B00021F00680F781E02D0994089520918F0178
:1031C000309190018217930771F090939001809352
:1031D0008F01E0919301F0919401309721F00084E8
:1031E000F185E02D0994089585B7806885BF85B77E
:1031F000806885BF0895089508950C94FC1808957B
:103200000C94FF180E94F4180E94FB180C94FD18EF
:1032100081E008950E942E260E94390E0E94B02659
:103220000E94D3290E94DF150C940019CF93C82F58
:103230008091F10182FF1EC080FF04C08FE696E0FE
:103240000E942D078091F10180FF0CC01F92CF9347
:103250008AE696E09F938F930E94C6070F900F9087
:103260000F900F908091F10180FF04C088E696E0F6
:103270000E942D078C2FCF910C94B108CF92DF9232
:10328000EF92FF920F931F93CF93DF93CDB7DEB7EB
:103290002B970FB6F894DEBF0FBECDBF0E94760EFF
:1032A0000E940819811111C08FEF89838A831B82C4
:1032B0000E9437268160782F9D838C8349815A81B3
:1032C0006B818D810E94E41956C086E9C82E81E089
:1032D000D82E00E010E0E02E802F0E94ED0DF601C8
:1032E00041916F01F42EF82631F40F5F1F4F033028
:1032F000110589F7D9CF9091F10191FF04C08B8717
:103300000E94F30D8B8520E030E04F2D50E0922F8E
:10331000BA01022E02C0759567950A94E2F760FF24
:1033200024C02E83EF8221E030E0690102C0CC0C82
:10333000DD1C9A95E2F790E08C219D21892B09F400
:1033400020E028870E9437268160782F9A87898716
:103350004E815F8168858A850E94E419F801EA56EA
:10336000FE4F8081C826C08206C02F5F3F4F2330AA
:10337000310569F6BACF109195010E94731818179C
:10338000A1F00E947318809395012B960FB6F894C4
:10339000DEBF0FBECDBFDF91CF911F910F91FF9088
:1033A000EF90DF90CF900C9416192B960FB6F894EF
:1033B000DEBF0FBECDBFDF91CF911F910F91FF9068
:1033C000EF90DF90CF900895CF93DF93CDB7DEB726
:1033D0002B970FB6F894DEBF0FBECDBF4F83588733
:1033E00069877A878B87DE01119686E0FD0111924D
:1033F0008A95E9F785E0FE01379601900D928A954E
:10340000E1F749815A816B817C818D819E810E9487
:10341000FA202B960FB6F894DEBF0FBECDBFDF911A
:10342000CF910895FC01808191810E94C623089567
:10343000CF93DF931F92CDB7DEB7882309F423C162
:10344000682F8238C1F40E94731881FD1CC169E3A2
:1034500080910E0190910F010E9487250E945124B6
:103460002FEF81EE94E0215080409040E1F700C0C2
:10347000000069E319C0833811F50E94731880FDBC
:1034800002C163E580910E0190910F010E94872592
:103490000E9451242FEF81EE94E021508040904013
:1034A000E1F700C0000063E580910E0190910F01EB
:1034B0000E9489250F90DF91CF910C94512484387C
:1034C000C1F40E94731882FDDEC067E480910E0192
:1034D00090910F010E9487250E9451242FEF81EEC9
:1034E00094E0215080409040E1F700C0000067E484
:1034F000DBCF8CEF860F813A70F4862F69830E94B0
:103500008A2969818111BFC080910E0190910F01BC
:103510000E948725CFCF80E2860F883048F46770FD
:1035200081E001C0880F6A95EAF70E940824C2CFA3
:103530008BE5860F833088F4653A29F0663A31F0DE
:1035400083E890E005C081E890E002C082E890E066
:103550000F90DF91CF910C94C81888E5860F8731C2
:1035600008F091C0683A09F445C0693A09F445C0C9
:103570006A3A09F445C06B3A09F445C06C3A09F45B
:1035800045C06B3B09F445C06C3B09F445C06D3A3E
:1035900009F445C0603B09F445C06E3A09F445C0E2
:1035A0006F3A09F445C0613B09F445C0623B09F438
:1035B00045C0633B09F445C0643B09F445C0653B25
:1035C00009F445C0663B09F445C0673B09F445C0B2
:1035D000683B09F445C0693B09F445C06D3B09F4FB
:1035E00045C06E3B09F445C06A3B09F445C080E024
:1035F00090E044C082EE90E041C089EE90E03EC091
:103600008AEE90E03BC085EB90E038C086EB90E01E
:1036100035C083EB90E032C084EB90E02FC087EBA5
:1036200090E02CC08CEC90E029C08DEC90E026C09E
:1036300083E891E023C08AE891E020C082E991E02C
:103640001DC084E991E01AC081E292E017C083E2D4
:1036500092E014C084E292E011C085E292E00EC0D4
:1036600086E292E00BC087E292E008C08FE690E02D
:1036700005C080E790E002C08AE292E00F90DF91FF
:10368000CF910C94DE180F90DF91CF91089588238D
:1036900009F45BC0682F823879F40E94731881FFA7
:1036A00054C069E380910E0190910F010E9487251B
:1036B0000E94512469E310C08338B1F40E9473184A
:1036C00080FF43C063E580910E0190910F010E943D
:1036D00087250E94512463E580910E0190910F018E
:1036E0000E9489250C945124843879F40E9473181F
:1036F00082FF2BC067E480910E0190910F010E9420
:1037000087250E94512467E4E7CF8CEF860F813A2A
:1037100018F380E2860F883048F4677081E001C0BA
:10372000880F6A95EAF70E940E24DCCF8BE5860F9E
:10373000833020F480E090E00C94C818685A673118
:1037400020F480E090E00C94DE180895CF93C82F09
:103750000E94181A8C2FCF910C94471B882321F0BC
:103760000E9408240C9451240895882321F00E947B
:103770000E240C94512408954F925F926F927F9281
:10378000BF92CF92DF92EF92FF920F931F93CF934E
:10379000DF937C01D62FC72FFC01058102950F70A6
:1037A000128111110E9425240E94FE23882379F0A2
:1037B000112369F080E28D0F883048F082E00E948A
:1037C0009C240E94FE2391E0B82EB92601C0B12CA2
:1037D000CC2EC2948FE0C822D12CF601E859FF4FBD
:1037E0000C9457368C2F807FCF70882311F0C295B0
:1037F000C07F112399F0CC2309F48EC180E28D0F94
:10380000883010F0D11104C08C2F0E94082403C00E
:103810008C2F0E9418240E9451247EC18D2F0E945B
:10382000471BCC2309F4C1C180E28D0F883010F012
:10383000D11104C08C2F0E940E2403C08C2F0E9433
:103840001E240E945124B1C18C2F807FCF70803202
:1038500011F0C295C07FDD2319F0D130C9F022C02C
:10386000112371F0002341F0013031F40E9438241B
:103870008C2B0E943E2499C10E9438248C2B1DC0A1
:10388000002319F0013009F490C10E9447241AC0A6
:10389000112321F0063008F088C10EC0053008F071
:1038A00084C110C0112361F0002331F0F70185813C
:1038B00080FF32C18F7085838C2F0E94AE1B75C133
:1038C00001113BC18C2FE6C08C2F869586958370A5
:1038D00090E0009719F0019761F067C1112321F082
:1038E0008D2F9C2F937002C080E090E00E94C8183A
:1038F0006CC1112321F08D2F9C2F937002C080E0AA
:1039000090E00E94DE1861C18C2F837009F050C0D6
:10391000111157C18D2F829586958770880F880F5A
:103920009D2F9F70492E512C612C712C082E04C0A4
:10393000440C551C661C771C0A94D2F7D4FF14C0A3
:103940000FE010E020E030E0B901A80104C0440F0E
:10395000551F661F771F8A95D2F7CB01BA01609574
:1039600070958095909503C060E070E0CB01C6959E
:10397000C695C370D0E0C230D10561F0C330D10527
:1039800081F06429752986299729219771F00E9471
:103990003F2217C164297529862997290E9451223F
:1039A00010C10E943F22C301B2010E942D2209C111
:1039B000112319F08C2F817001C08695882309F49A
:1039C00000C18D2F829586958770880F880F9D2F57
:1039D0009F70492E512C612C712C082E04C0440C70
:1039E000551C661C771C0A94D2F7D4FF14C00FE054
:1039F00010E020E030E0B901A80104C0440F551FD9
:103A0000661F771F8A95D2F7CB01BA016095709532
:103A10008095909503C060E070E0CB01C695C69597
:103A2000C3704C2F50E04230510569F043305105CE
:103A300089F064297529862997294130510571F04B
:103A40000E940523BEC064297529862997290E94F2
:103A50001723B7C00E940523C301B2010E94F322BD
:103A6000B0C08D2F90E0FC01E05EF109E531F10579
:103A700008F04EC0E858FF4F0C945736DF708C2F7B
:103A80008F71112321F00E948C228D2F16CF0E945E
:103A9000AD228D2F0E94B51B88C0112341F0053047
:103AA00008F083C08C2F8F710E94D2227EC0063016
:103AB00008F07BC0F7CF112339F08C2F8F710E9453
:103AC0008C2273C01123C9F38C2F8F710E94AD22F9
:103AD0006CC0112329F08C2F8F710E94772265C052
:103AE0000E94722262C0112349F0CF718C2F0E9474
:103AF0008C2263E08C2F0E94872457C081E00E94B3
:103B00009C24023008F451C082E00E949C244DC0E5
:103B1000112331F0002389F28D2F0E94181A45C01D
:103B2000002391F2D93349F45FEF67EE73E051500F
:103B300060407040E1F700C000008D2F0E94471BDD
:103B400034C04C2F4F706D2FC7010E94320B0E9462
:103B50009E213BC0111139C0CF70D0E0C230D105D9
:103B600099F03CF4209769F02197F9F40E94202AFB
:103B70002CC0C430D10571F054F02597B1F480E029
:103B80000AC00E94F02921C00E948A2A1EC00E94F9
:103B9000A62A1BC087E00E94DC2A17C04C2F4F705A
:103BA0006D2FC7010E94350B10C088E0C816D104E4
:103BB00041F05CF0EAE0CE1AD108F2E0CF16D10471
:103BC00020F40E9473180E94B108BB20F1F00E94FB
:103BD000FA2380FD1AC0F70112820E94F4230E948A
:103BE0008C22C7010E94131E0E94F423DF91CF9103
:103BF0001F910F91FF90EF90DF90CF90BF907F903B
:103C00006F905F904F900C94AD22DF91CF911F91F8
:103C10000F91FF90EF90DF90CF90BF907F906F90CB
:103C20005F904F9008950F931F93CF93DF93EC0114
:103C3000888199812B813C81232BB9F09F3F11F41E
:103C40008F3F99F0CE010E94C908882371F06881E6
:103C500079818A810E94D1238C010E9429230E94AC
:103C60002A22B801CE010E94BC1BDF91CF911F9187
:103C70000F9108950E9425240E9435240E9451240A
:103C800080E090E00E94C81880E090E00C94DE187C
:103C900080910E0190910F010E948B250C943A1E89
:103CA0000E9415240C94481EE92FE295EF70F0E075
:103CB0003297EE30F105B0F4E357FF4F0C945736CE
:103CC000803F91F018F4803E68F40EC0843F51F4B8
:103CD0000BC0803E48F0813F29F406C093FB882743
:103CE00080F9089580E0089581E008950E94C62338
:103CF0000E94541E0895CF93DF9300D000D01F92EE
:103D0000CDB7DEB70F900F900F900F900F90DF910F
:103D1000CF910895CF93DF9300D000D000D0CDB7DE
:103D2000DEB726960FB6F894DEBF0FBECDBFDF918B
:103D3000CF9108951F93CF93DF93C0919A0116E01E
:103D400080919B01C81799F0D0E01C9FF0011D9F46
:103D5000F00D1124E456FE4F408151816281738140
:103D6000848195810E948A1E2196C770E9CFDF91D8
:103D7000CF911F9108954091CC015091CD01609158
:103D8000CE017091CF018091D0019091D1010C941E
:103D90008A1E8091D10182958F7009F054C0809164
:103DA000CE01882309F44FC080919A01A0919B0114
:103DB0006091CC017091CD014091CF015091D00123
:103DC000B6E08A1709F43FC090E041155105C1F1F2
:103DD0007F3F11F46F3FA1F1B89FF001B99FF00D43
:103DE0001124E456FE4F218172132AC020816213F0
:103DF00027C02281211124C0238134812417350753
:103E000010F421503109241B350B283C3105C0F436
:103E10002091D1012F7020612093D10126E0289FAD
:103E2000F001299FF00D1124EF55FE4F80818F7016
:103E3000806180838CEC91E00E94131E0C949A1E8A
:103E400001968770BECF0895CF92DF92EF92FF92D6
:103E50000F931F93CF93DF93CDB7DEB762970FB663
:103E6000F894DEBF0FBECDBF8C0185E0F801DE0106
:103E70001D9601900D928A95E1F7D8014C9111960B
:103E80005C91119712966C9112971396CD90DC90DD
:103E900014973091CC017091CD018091CF01909118
:103EA000D001009709F46BC17F3F19F43F3F09F43B
:103EB00066C1E090CE01EE2009F4C0C02091D1018E
:103EC000C816D90628F0F601E81BF90BCF0104C08B
:103ED000809590958C0D9D1DFF24F394883C910551
:103EE00078F0F12C207F09F0C6C07C2DD98AC88AD1
:103EF00089890E947B1E8CEC91E00E94131EB1C048
:103F0000822F807F09F046C0751314C0341312C08D
:103F1000611110C02F7020612093D1010E94BB1E3F
:103F20008CEC91E00E94131E8091D101D80115966E
:103F30008C932EC0CD2819F15F3F11F44F3FF9F05B
:103F4000F62E61111CC080919A0120919B0136E0F0
:103F5000821709F45AC090E0389FF001399FF00DA4
:103F60001124E456FE4F7181571306C07081471328
:103F700003C07281711103C001968770E9CFF62EDC
:103F8000662309F427C18091D10181608093D1011A
:103F9000F12C20C1751308C0341306C0611104C090
:103FA0008091D101D801C3C04D875E878D859E85E4
:103FB0006A8B0E94761E6A898823E1F16623D1F11B
:103FC0002091D101822F82958F7090E0029774F03A
:103FD0008091CC019091CD0198878F831986DB86E3
:103FE000CA862C87CE0107960E94131E86E0F80130
:103FF000ACECB1E001900D928A95E1F70E94C91EE8
:104000000E94BB1EFF24F394E5C04D875E878D851B
:104010009E850E94C623292F22952F7030E02230E2
:1040200031050CF0CBC09F7009F0C5C0805E8830B0
:1040300008F4D0C0C8010E94131EE4CFC816D906E8
:1040400008F453C0F601E81BF90BCF01883C910539
:1040500008F450C0F12C7C2DD98AC88A89890E9425
:104060007B1EECECF1E086E0DF011D928A95E9F71A
:104070000E94BB1EAFC0751314C0341312C061116F
:1040800010C08091D101F8018583C8010E94131EE0
:1040900086E0ECECF1E0DF011D928A95E9F7FE2C59
:1040A00099C04D875E878D859E856A8B0E94761E9E
:1040B0006A89882309F4BECF662309F4BBCF209117
:1040C000D101822F82958F7090E002970CF48ECFF1
:1040D0008091CC019091CD019A8389831B82DD82EE
:1040E000CC822E83CE0101967FCF809590958C0D4A
:1040F0009D1DACCFF62E662309F49CCF75132EC000
:1041000034132CC02091D10120FD1FC0822F829535
:104110008F70D9F0D80115962C9315978F3049F0F0
:104120008F5F982F9295907F822F8F70892B159695
:104130008C93C8010E94131E86E0F801ACECB1E03C
:1041400001900D928A95E1F793CF86E0F801ACECEF
:10415000B1E001900D928A95E1F73CC04D875E87F2
:104160008D859E850E94761E811140CF8091D10160
:1041700081608093D101C8010E94131E2BC0662369
:1041800009F458CF4D875E878D859E850E94761EE7
:10419000F82E882309F44ECF86E0F801ACECB1E0AC
:1041A00001900D928A95E1F78CEC91E00E94121A31
:1041B0000E94C91E5DCF811139CF0CC0243031055A
:1041C0000CF038CF9F7009F431CFF8019581907FC2
:1041D00009F02CCF8F2D62960FB6F894DEBF0FBE7C
:1041E000CDBFDF91CF911F910F91FF90EF90DF90A6
:1041F000CF9008951F93CF93DF93CDB7DEB72C9761
:104200000FB6F894DEBF0FBECDBF4F8358876987C6
:104210007A878B879C87CE0107960E94241F88236C
:1042200069F08F8198852A853B85232BF1F19F3F8B
:1042300009F063C08F3F09F060C037C086E0FE011F
:104240003796DE01119601900D928A95E1F76F8104
:104250007885EA85FB85309741F17F3F11F46F3F08
:1042600021F120919B0130E0C901019687709927C7
:1042700040919A0150E08417950709F447C069837B
:104280007A83FD83EC8396E0929FD001939FB00DDB
:104290001124A456BE4FFE01319601900D929A95BD
:1042A000E1F780939B010E949A1E16E080919A018B
:1042B00090919B018917C1F1189FC0011124845668
:1042C0009E4F0E94241F882379F1E0919A011E9F3E
:1042D000F0011124E456FE4F4081518162817381C7
:1042E000848195810E948A1E80919A0190E00196B6
:1042F0008770992780939A01D9CF4F815885698516
:104300007A858B859C850E948A1ECFCF0E94501E85
:1043100010929B0110929A01ECECF1E086E0DF0133
:104320001D928A95E9F7C1CF2C960FB6F894DEBF9F
:104330000FBECDBFDF91CF911F910895EF92FF92F5
:104340000F931F93CF93DF938C01892B09F46CC0DB
:10435000F12CEE24E394E8012196F801849184374E
:1043600040F4843008F051C0813081F0823019F17E
:104370005BC0853709F444C0A8F19CE7980F9037DB
:1043800008F052C08F770E94471B41C00E5F1F4F3D
:10439000FE01C49180E28C0F883048F4C7708E2DE6
:1043A00001C0880FCA95EAF70E94282414C08C2FF8
:1043B0000E94181A2DC00E5F1F4FFE01C49180E2AB
:1043C0008C0F883058F4C7708E2D01C0880FCA95A5
:1043D000EAF70E942E240E9451241AC08C2F0E94BA
:1043E000471B16C00E5F1F4FFE01C491CC2381F006
:1043F0008FE99FE00197F1F700C00000C150F6CFB0
:104400000E5F1F4FFE01F49003C00E94181A8E0128
:104410008F2D882309F49FCFEFE9FFE03197F1F763
:1044200000C000008150F5CFDF91CF911F910F9117
:10443000FF90EF90089508950C941B220E941C2277
:104440006093E0017093E1018093E2019093E301B6
:104450000C943A1E08950C941E220F931F93009102
:10446000E0011091E1012091E2013091E301602B24
:10447000712B822B932B1F910F910C941E220F9363
:104480001F930091E0011091E1012091E201309130
:10449000E30160237123822393231F910F910C94D6
:1044A0001E220F931F930091E0011091E1012091D2
:1044B000E2013091E30160277127822793271F9142
:1044C0000F910C941E2208950C9463220E94642282
:1044D0006093DC017093DD018093DE019093DF0136
:1044E0000C943A1E60E070E0CB010C9466220F93AE
:1044F0001F9341E050E060E070E08A019B0104C03E
:10450000000F111F221F331F8A95D2F7C901B8016E
:104510001F910F910C9466220F931F9341E050E07E
:1045200060E070E004C0440F551F661F771F8A9536
:10453000D2F78091DC019091DD01A091DE01B09174
:10454000DF018A019B01082B192B2A2B3B2BC90168
:10455000B8011F910F910C9466220F931F9341E0B5
:1045600050E060E070E004C0440F551F661F771FE5
:104570008A95D2F740955095609570958091DC01B1
:104580009091DD01A091DE01B091DF018A019B01D4
:10459000082319232A233B23C901B8011F910F9136
:1045A0000C9466220F931F9341E050E060E070E0AE
:1045B00004C0440F551F661F771F8A95D2F780915C
:1045C000DC019091DD01A091DE01B091DF018A0153
:1045D0009B01082719272A273B27C901B8011F91EA
:1045E0000F910C9466220F931F930091DC011091A0
:1045F000DD012091DE013091DF01602B712B822BD8
:10460000932B1F910F910C9466220F931F9300918F
:10461000DC011091DD012091DE013091DF0160238A
:104620007123822393231F910F910C9466220F9381
:104630001F930091DC011091DD012091DE0130918A
:10464000DF0160277127822793271F910F910C9418
:1046500066220895292F220F920F890FA82FA69561
:10466000A695A695877051E001C0550F8A95EAF787
:1046700085E0A89FD001112420E030E070E0F9012E
:10468000EA0FFB1FEE52FE4F4081CB01022E02C00B
:10469000969587950A94E2F78170992781958427EA
:1046A0008523842780832F5F3F4F2530310539F7DD
:1046B0000895292F220F920F890F682F669566950E
:1046C0006695982F977085E0689FB001112440E0AF
:1046D00050E080E0FA01E60FF71FEE52FE4F208116
:1046E00030E0092E02C0369527950A94E2F7217032
:1046F0003327042E01C0220F0A94EAF7822B4F5F62
:104700005F4F4530510531F70895BF92CF92DF9248
:10471000EF92FF920F931F93CF93DF938C01C09082
:10472000E001D090E101E090E201F090E30180919E
:10473000DC019091DD01A091DE01B091DF01C82A7A
:10474000D92AEA2AFB2ACFE1D0E0D701C6010C2EF4
:1047500004C0B695A795979587950A94D2F780FFE0
:1047600007C0BC2EB8018C2F0E94540B019719F47E
:10477000219758F7B12C8B2DDF91CF911F910F917D
:10478000FF90EF90DF90CF90BF900895CF93DF938D
:10479000EC010E948523BE010E94540BDF91CF9152
:1047A00008951F93CF93DF93EB0190919901992383
:1047B00021F0CB010E94C62313C0882349F0CB010E
:1047C0000E948523182F682FCE010E942A2304C03F
:1047D000CB010E945923182FBE01812F0E94540B38
:1047E000DF91CF911F9108958091E4018595859582
:1047F000859508958091E401877008959091E40172
:10480000977081E009F480E008958091F0010895A7
:104810009091F001892B8093F001089580959091FB
:10482000F00189238093F00108951092F00108951A
:104830009091EF01892B8093EF01089580959091DD
:10484000EF0189238093EF0108951092EF010895FD
:104850009091EE01892B8093EE01089580959091BF
:10486000EE0189238093EE0108951092EE010895E0
:104870008091E501089508950C943B249091E50101
:10488000981721F08093E5010C943C2408958091C1
:10489000E501882329F01092E50180E00C943C2486
:1048A0000895E0910E01F0910F018091F001808355
:1048B000E0910E01F0910F0190818091EF01892B21
:1048C0008083E0910E01F0910F0190818091EE01C3
:1048D000892B80838091E501882381F0E0910E018E
:1048E000F0910F019081892B808380910E0190912E
:1048F0000F010E94552581110E94472480910E01CD
:1049000090910F010C947F1808950C94842498E0E2
:10491000899F90011124262B2093E4010E948C2270
:104920008091E4018595859585950C948524109258
:10493000E40180E00C9485242091E4018095822399
:104940008093E401982F977079F430E0482F082E77
:10495000000C550B2417350739F0859585958595FD
:104960000E94AD220C949724089590936D0180933A
:104970006C0108958295982F9C7C392F3695369539
:10498000282F237344E0249FC0011124932F982BD8
:10499000292F2A7A2695892F8575880F822B0895CD
:1049A00080E090E00E94923621E08D3E9E4F09F01B
:1049B00020E0822F089582E090E00C94843683E01A
:1049C00090E00C94843684E090E00C948436682F58
:1049D00084E090E00C94983686E090E00C94843665
:1049E000682F86E090E00C949836AB01BC018FE014
:1049F00090E00C94AA36AB01BC0183E190E00C94EA
:104A0000AA3660E070E0CB010C94FB2460E070E01B
:104A1000CB010E94F5240C9401256DEE7EEF80E021
:104A200090E00E94B63660E082E090E00E94983606
:104A300060E083E090E00E9498361092E0011092CE
:104A4000E1011092E2011092E30160E084E090E065
:104A50000E94983660E085E090E00E94983660E021
:104A600086E090E00E9498366FEF87E090E00E9429
:104A7000983640E050E0BA0188E090E00E94AA3603
:104A800060E08DE090E00E94983640E050E0BA018E
:104A900088E190E00E94AA3660E087E190E00E9401
:104AA00098360C9406250C940D25FC01329697E05F
:104AB00080E0915029F021912223D9F38F5FF9CF23
:104AC00008959C01FC0132969FEF80E041914617CA
:104AD00089F09F3F19F4411101C0982F8F5F8630F4
:104AE000A9F79F3F39F0F901E90FF11D97FDFA95FC
:104AF000628308950895FC0132960896208126135A
:104B000001C010823196E817F907C1F708950C9497
:104B100061250C947B25029626E0FC0111922A95D2
:104B2000E9F7089508950C9492250E9493258091A9
:104B30002002843009F43CC01092F20120E488E1A4
:104B400090E00FB6F894A895809360000FBE209374
:104B5000600080E00E94340880E00E94B1080E945A
:104B600032158091F30181110AC081E08093F30135
:104B70008091040281708093F4010E94A2160E9429
:104B8000932583B7817F846083BF83B7816083BFB0
:104B90007894889583B78E7F83BF0FB6F894A895D5
:104BA00080916000886180936000109260000FBE69
:104BB000089508950895CF930E94D9250E94760EF6
:104BC0000E94DA25C0E08C2F0E94ED0D811104C0F7
:104BD000CF5FC330C1F701C081E0CF910895089540
:104BE0000C94EF250E94501E0E94D3290E94731836
:104BF0000E94B1081092F3018091F40181110E948A
:104C000046160E940F150C94F0251F920F920FB6B6
:104C10000F9211248F939F93AF93BF938091F201D2
:104C2000811113C08091150290911602A091170274
:104C3000B09118024196A11DB11D80931502909369
:104C40001602A0931702B0931802BF91AF919F91E3
:104C50008F910F900FBE0F901F90189582E084BD2A
:104C600093E095BD9AEF97BD80936E0008952FB79E
:104C7000F8948091150290911602A0911702B091BC
:104C800018022FBF08952FB7F89460911502709104
:104C9000160280911702909118022FBF0895CF92AB
:104CA000DF92EF92FF920F931F932FB7F8944091EA
:104CB00015025091160260911702709118022FBFD1
:104CC0006A017B01EE24FF248C0120E030E0C01655
:104CD000D106E206F30610F4415051099A01281B4F
:104CE000390BC9011F910F91FF90EF90DF90CF908A
:104CF000089578941F920F920FB60F9211248F93FC
:104D00009F93AF93BF938091150290911602A0914B
:104D10001702B09118020196A11DB11D80931502D2
:104D200090931602A0931702B0931802BF91AF910F
:104D30009F918F910F900FBE0F901F90189587E74E
:104D400097E790930108809300089AE088E10FB6F6
:104D5000F894A895809360000FBE90936000FFCFF9
:104D60000E94D024811102C00E9453250E94DB249E
:104D70008093F1010E94E32490E090931A028093C3
:104D800019020E94DF24682F70E080E090E00C940C
:104D90002B22CF93C82F1F928F9388E896E09F9382
:104DA0008F930E94C60781E090E0A0E0B0E0BC01D4
:104DB000CD0104C0660F771F881F991FCA95D2F7CF
:104DC0000E942B220F900F900F900F90CF910C9478
:104DD000501ECF938B3109F40FC208F0A5C18B3060
:104DE00009F4C8C108F07BC1863009F4C6C120F4BB
:104DF000853009F4D4C182C2873009F4E2C1883019
:104E000009F07CC281ED9BE00E942D0782E29BE0CD
:104E10000E942D070E94DF241F928F938FE19BE059
:104E20009F938F930E94C6078DE19BE00E942D0700
:104E30000E94DB24C82F8AE09BE00E942D071F926E
:104E4000CF9385E09BE09F938F930E94C60783E0FA
:104E50009BE00E942D0789EF9AE00E942D078C2F7E
:104E600081701F928F9386EF9AE09F938F930E9499
:104E7000C60784EF9AE00E942D078AEE9AE00E940E
:104E80002D07C1FB882780F91F928F9387EE9AE048
:104E90009F938F930E94C60785EE9AE00E942D078C
:104EA00089ED9AE00E942D07C2FB882780F91F92A6
:104EB0008F9386ED9AE09F938F930E94C60784EDAF
:104EC0009AE00E942D078BEC9AE00E942D07C3FB0D
:104ED000CC27C0F91F92CF9388EC9AE09F938F93D1
:104EE0000E94C60786EC9AE00E942D070E94E324E8
:104EF000C82F82EB9AE00E942D071F92CF938DEA74
:104F00009AE09F938F930E94C6078BEA9AE00E94D3
:104F10002D0782E99AE00E942D078C2F81701F9245
:104F20008F938FE89AE09F938F930E94C6078DB767
:104F30009EB780960FB6F8949EBF0FBE8DBF8DE8CA
:104F40009AE00E942D0786E79AE00E942D07C1FB98
:104F5000882780F91F928F9383E79AE09F938F931E
:104F60000E94C60781E79AE00E942D078FE59AE02C
:104F70000E942D07C2FB882780F91F928F938CE532
:104F80009AE09F938F930E94C6078AE59AE00E9459
:104F90002D0788E49AE00E942D07C3FB882780F93B
:104FA0001F928F9385E49AE09F938F930E94C60788
:104FB00083E49AE00E942D0789E39AE00E942D077E
:104FC000C4FB882780F91F928F9386E39AE09F9312
:104FD0008F930E94C60784E39AE00E942D0782E225
:104FE0009AE00E942D07C5FB882780F91F928F93B6
:104FF0008FE19AE09F938F930E94C6078DE19AE01C
:105000000E942D0781E09AE00E942D07C6FB8827A9
:1050100080F91F928F938EEF99E09F938F930E9458
:10502000C6078CEF99E00E942D0784EF99E00E945B
:105030002D07C7FBCC27C0F91F92CF9381EF99E0D2
:105040009F938F930E94C6078FEE99E00E942D07D1
:105050000E94EC24C82F88ED99E00E942D071F9232
:10506000CF9383ED99E09F938F930E94C6078DB7EE
:105070009EB780960FB6F8949EBF0FBE8DBF81ED90
:1050800099E00E942D0787EC99E00E942D078C2F54
:1050900081701F928F9384EC99E09F938F930E946D
:1050A000C60782EC99E00E942D0789EB99E00E94E7
:1050B0002D07C6951F92CF9386EB99E09F938F9310
:1050C0000E94C60784EB99E00E942D078DB79EB71A
:1050D00008960FB6F8949EBF0FBE8DBF49C08031B1
:1050E00009F4B4C020F48E3009F49AC007C18631A7
:1050F00009F4C7C0893109F001C187EE97E00E9429
:105100002D078EEB97E00E942D078BE897E00E9419
:105110002D0781E597E00E942D0784E297E00E9429
:105120002D0786EF96E08FC08A32E1F060F4873277
:1051300009F4E0C028F48E3108F4E0C08D51DBC0E2
:10514000893269F1DBC0833448F48A3308F0D0C077
:10515000853309F4CFC0883369F0D0C0833409F4B3
:10516000C9C0CCC080EC9BE00E942D070E94532553
:10517000C1E0C9C081E198E066C08091F101817F02
:105180008E7F8093F10186EF97E00E942D078CEBD4
:105190009BE00E942D0781E08093F501E9CF0E94FA
:1051A000501E80EA9BE00E942D079FEF23ED80E3D5
:1051B000915020408040E1F700C000000E949F26EF
:1051C000D7CF8091F101C82FC095C170C0FB80F985
:1051D0008093F101CC2329F084E99BE00E942D0704
:1051E00092C087E89BE00E942D078091F101897FA2
:1051F000877F8093F101BCCF9091F10191FBCC2787
:10520000C0F981E0C827892FC0FB81F98093F101A3
:10521000CC2319F08AE79BE029C08CE69BE013C001
:105220009091F10192FBCC27C0F981E0C827892F2A
:10523000C0FB82F98093F101CC2319F08DE59BE04E
:1052400015C08DE49BE00E942D0792CF9091F10153
:1052500093FBCC27C0F981E0C827892FC0FB83F9D5
:105260008093F101CC2351F081E49BE00E942D0753
:105270008091F10181608093F10145C084E39BE05E
:10528000E2CF88EE96E00E942D070E9473181F92CD
:105290008F938EEC96E09F938F930E94C607809128
:1052A0001A011F928F9387EB96E09F938F930E9432
:1052B000C607809102021F928F9384EA96E09F9323
:1052C0008F930E94C6070E9443269F938F937F93DC
:1052D0006F938DE896E09F938F930E94C6078DB7DA
:1052E0009EB742960FB6F8949EBF0FBE8DBF40CFBB
:1052F000895301C080E00E94C9263ACF82E39BE037
:105300000E942D07C0E08C2FCF91089580E0089572
:1053100080E00895CF93C82F8091F501882319F07C
:10532000813031F038C00E9405248232B1F504C0CA
:105330000E940524823261F48C2F0E9486298111FB
:1053400004C08C2F0E94E92624C081E090E021C097
:105350008C2F0E94882981111BC0C43189F018F458
:10536000CB3029F010C0C93259F0C83361F486EF50
:1053700097E00E942D0784E896E00E942D0708C060
:105380001092F5010CC082E896E00E942D0707C03C
:1053900081E0817006C01092F50180E002C080E0DB
:1053A000F8CFCF9108950E94D024811102C00E94AD
:1053B00053250E94EC2480931B02282F269530E071
:1053C0002830310524F081708E6080931B0280911B
:1053D0001B0280FF02C0869501C080E00C94340857
:1053E00020911B02822F8695482F50E047305105AF
:1053F00044F48F5F982F990F822F8170892B8093AF
:105400001B0280911B02816080931B020E94F0248A
:105410008091F10180FF0FC080911B0286951F9241
:105420008F9383E49CE09F938F930E94C6070F9015
:105430000F900F900F9080911B0286950C9434086A
:1054400080911B02982F969591F09158990F817039
:10545000892B80931B028E7F91E009F490E080916C
:105460001B0290FB80F980931B020E94F024809124
:10547000F10180FF0FC080911B0286951F928F93D0
:105480008BE29CE09F938F930E94C6070F900F9032
:105490000F900F9080911B0286950C943408809198
:1054A0001B0280FD1DC0816080931B02813019F4B6
:1054B00083E080931B0280911B020E94F024809164
:1054C000F10180FF08C083E09CE09F938F930E94CE
:1054D000C6070F900F9080911B0286950C9434089C
:1054E000089580911B0280FF14C08E7F80931B0261
:1054F0000E94F0248091F10180FF08C080EF9BE0C2
:105500009F938F930E94C6070F900F9080E00C949A
:1055100034080895CF93C0911B02C1708091F101AE
:1055200080FF0CC01F92CF9385E19CE09F938F93E7
:105530000E94C6070F900F900F900F90CC2319F088
:10554000CF910C94712ACF910C944F2A90911B0209
:10555000892F86958F5F8F779170883028F4880F18
:10556000892B80931B0202C090931B0280911B0227
:105570008E7F91E009F490E080911B0290FB80F90E
:1055800080931B020E94F0248091F10180FF0FC0E4
:1055900080911B0286951F928F938CED9BE09F93C9
:1055A0008F930E94C6070F900F900F900F908091DD
:1055B0001B0286950C943408883008F087E0880F29
:1055C00090911B029170892B80931B028E7F91E03A
:1055D00009F490E080911B0290FB80F980931B02FC
:1055E0000E94F02480911B0286950C9434088091CF
:1055F0000102089508959FB7F8941092F8019FBF93
:1056000090912002943009F057C09091E9009F706A
:105610003091EC00232F217030FD20E8922B23E005
:105620002093E9002091EB0020FF43C02091EE0081
:1056300027FF3FC02091F601222321F02091E800AE
:1056400025FF37C01092F60126E03091E80035FDC5
:1056500015C030912002343061F53091EB0035FDFA
:1056600028C0215021F481E08093F60122C0EFE9A7
:10567000FFE03197F1F700C00000E7CF8093F10021
:105680008091E80085FD0AC08091E80080FFFCCF92
:105690008091E8008E778093E80006C08FB7F89479
:1056A00021E02093F8018FBF9F709093E90080E084
:1056B00008959F709093E9008FEF08950F931F93C3
:1056C000CF93DF9300D01F92CDB7DEB78C010E943D
:1056D000F02D823011F0843021F584E089831B8322
:1056E0000A8382E08093E9008FEF9091E800815077
:1056F00095FD06C095ED9A95F1F700008111F5CF63
:105700008091E80085FF0DC040E050E063E070E06C
:10571000CE0101960E940D2E8091E8008E77809335
:10572000E8000F900F900F90DF91CF911F910F9194
:105730000895CF93DF9300D01F92CDB7DEB72091AD
:105740002002243031F523E02983805891099B837E
:105750008A8382E08093E9008FEF9091E800815086
:1057600095FD06C095ED9A95F1F700008111F5CFF2
:105770008091E80085FF0DC040E050E063E070E0FC
:10578000CE0101960E940D2E8091E8008E778093C5
:10579000E8000F900F900F90DF91CF910895CF9375
:1057A000DF93EC010E94F02D823011F0843039F546
:1057B00081E08093E9008FEF9091E800815095FDA2
:1057C00006C095ED9A95F1F700008111F5CF809113
:1057D000E80085FF14C040E050E068E070E0CE01D2
:1057E0000E940D2E8091E8008E778093E80088E07B
:1057F000FE01A9EFB1E001900D928A95E1F7DF91EA
:10580000CF91089580E89CE00E942D0780911F02AF
:10581000811109C00E94A22F0E94FF2F8091E200F7
:1058200084608093E20008958CE79CE00E942D073D
:1058300010921F02089588E79CE00C942D0784E7DE
:105840009CE00C942D0780E79CE00E942D070C94AF
:10585000F2252091F7012F5F822F62E30E9401362B
:10586000992319F02093F70108951092F701809180
:10587000F801882371F180912002843041F58091F4
:10588000E9008F702091EC00922F917020FD90E83C
:10589000892B93E09093E9009091EB0090FF14C066
:1058A0009091EE0097FF10C09091E80095FF03C023
:1058B0001092F100F9CF9091E80090FF05C090910F
:1058C000E8009E779093E8008F708093E900109233
:1058D000F801089542E061EC81E00E941C2F42E251
:1058E00061EC82E00E941C2F42E261EC83E00C94A8
:1058F0001C2F80912202833009F460C030F4813083
:1059000071F0823009F499C008958A3009F485C095
:105910008B3009F46BC0893009F0A7C020C080919A
:105920002102813A09F0A1C08091E800877F80932D
:10593000E8008091250290912602892B21F468E0ED
:1059400089EF91E003C060E080E090E070E00E94A9
:10595000582E8091E8008B778093E800089580911D
:105960002102813209F081C08091250290912602A6
:10597000029708F07AC08091E800877F8093E80062
:105980008091E80082FD05C0809120028111F8CF4E
:105990006CC02091F3008091F20090E0922B02976E
:1059A00029F48091F1008B7F813021F48091F10006
:1059B000809301028091E8008B7753C0809121028F
:1059C000813A09F052C08091250290912602892BDC
:1059D00009F04BC08091E800877F8093E8008091B8
:1059E000E80080FFFCCF80911A0136C0809121022F
:1059F0008132D9F58091250290912602892BA9F553
:105A00008091E800877F8093E8000E94512F809169
:105A1000230280931A010C94501E8091210281323E
:105A200021F58091E800877F8093E8000E94512F44
:105A30008091240280930202089580912102813A8C
:105A4000A1F48091E800877F8093E8008091E800CE
:105A500080FFFCCF809102028093F1008091E800EA
:105A60008E778093E8000C94512F089584B7877F38
:105A700084BF0FB6F894A8958091600088618093E8
:105A80006000109260000FBE80E880936100109269
:105A900061000E9402190E94A22F0E94FF2F809194
:105AA000E20084608093E2008BEF9AE20E94B524CA
:105AB00078940E948D320E940A1980E191E00E9440
:105AC0006E188FE59CE00E942D07809120028530A2
:105AD00089F48BE59CE00E942D070E94952580911A
